:100000000C942A000C9447000C9447000C94470071
:100010000C946F000C9447000C9447000C9447001C
:100020000C9447000C9447000C9447000C94470034
:100030000C9447000C9447000C9447000C94470024
:100040000C9447000C9447000C9447000C94470014
:100050000C94470011241FBECFE5D8E0DEBFCDBF12
:1000600010E0A0E6B0E0E2EDF8E002C005900D92ED
:10007000A036B107D9F720E0A0E6B0E001C01D929C
:10008000A237B207E1F70E9449000C9467040C9470
:1000900000000E9469030E947F0368EE73E080E025
:1000A00090E00E94920381E00E94700360E875E294
:1000B00080E090E00E94DC030E94D8000E94FB00D8
:1000C0000E940C020E94FF038B3219F08D3221F046
:1000D000F9CF0E941301F6CF0E944C02F3CF1F927A
:1000E0000F920FB60F9211244F935F936F937F93EC
:1000F0008F939F93AF93BF93809160009091610025
:10010000A0916200B0916300AC01BD014F5F5F4FF1
:100110006F4F7F4F40936000509361006093620087
:10012000709363004091690050916A0060916B0088
:1001300070916C0084179507A607B70701F5109218
:100140006000109261001092620010926300809132
:10015000650090916600A0916700B09168000196DB
:10016000A11DB11D8093650090936600A093670068
:10017000B0936800809164008F5F80936400BF91AA
:10018000AF919F918F917F916F915F914F910F9060
:100190000FBE0F901F90189541E00E9454020895E1
:1001A00041E00E94C202089540E00E94C202089508
:1001B00065E081E00E94CC0008951092640065E043
:1001C00081E00E94D00080916400893058F49091C1
:1001D000640029E330E0A901491B5109CA010E94CA
:1001E000F203F1CF83E490E00E94F20365E081E046
:1001F0000E94D400089560E081E00E94CC0061E09C
:1002000081E00E94CC0062E081E00E94CC000E946C
:1002100030030E94370380E00E944A0364E081E0DB
:100220000E94CC00089561E08DE690E00E94B90143
:10023000109265001092660010926700109268009C
:100240008091650090916600A0916700B091680070
:100250000E94F2038091650090916600A091670072
:10026000B09168004097A105B105A0F460E081E07D
:100270000E94D00061E081E00E94D40062E081E051
:100280000E94D40084E60E944A0364E081E00E9458
:10029000D400D6CF8091650090916600A091670050
:1002A000B09168004097A105B10500F1809165000B
:1002B00090916600A0916700B09168004397A105F6
:1002C000B105A0F460E081E00E94D40061E081E02B
:1002D0000E94D00062E081E00E94D40080E00E9491
:1002E0004A0364E081E00E94D400AACF80916500B7
:1002F00090916600A0916700B09168004397A105B6
:10030000B10500F18091650090916600A0916700B1
:10031000B09168008297A105B105A0F460E081E08A
:100320000E94D40061E081E00E94D40062E081E09C
:100330000E94D0008BE40E944A0364E081E00E94A6
:10034000D0007ECF60E081E00E94D40061E081E0D7
:100350000E94D40062E081E00E94D40080E00E940C
:100360004A0364E081E00E94D40084E40E94F20326
:100370000895EF92FF920F931F93CF93DF9300D0D6
:1003800000D01F92CDB7DEB77C0103E030C010E093
:100390000E94FF038823E1F38D3051F0153040F4C3
:1003A000E1E0F0E0EC0FFD1FE10FF11D80831F5F26
:1003B0008D3071F7153061F711C0822F90E0F70191
:1003C000E80FF91F3081E1E0F0E0EC0FFD1FE80FCE
:1003D000F91F8081381305C02F5F01C020E021176D
:1003E00060F3121749F082E40E94F20301500111F8
:1003F000CECF0E94DD00C9CF81E40E94F20381E0EC
:100400000F900F900F900F900F90DF91CF911F9151
:100410000F91FF90EF9008951F93CF93DF9300D03B
:1004200000D01F92CDB7DEB710E00E94FF038823F3
:10043000E1F38D3051F0153040F4E1E0F0E0EC0FE5
:10044000FD1FE10FF11D80831F5F8D3071F71530A7
:1004500061F760E0CE0101960E94B901882329F37B
:100460000FC0822F90E0E1E0F0E0EC0FFD1FE80FFD
:10047000F91F3081FC01E359FF4F30832F5F01C02A
:1004800020E0211770F30F900F900F900F900F90B6
:10049000DF91CF911F91089561E08DE690E00E9479
:1004A000B9010E940C020895411138C0813091F0C9
:1004B00028F08230D9F0833029F108952AB381E001
:1004C00090E002C0880F991F6A95E2F78095822319
:1004D0008ABB089527B381E090E002C0880F991F7E
:1004E0006A95E2F78095822387BB089524B381E063
:1004F00090E002C0880F991F6A95E2F780958223E9
:1005000084BB089521B381E090E002C0880F991F59
:100510006A95E2F78095822381BB0895813089F046
:1005200028F08230C9F0833011F108952AB381E0B8
:1005300090E002C0880F991F6A95E2F7822B8ABB70
:10054000089527B381E090E002C0880F991F6A9553
:10055000E2F7822B87BB089524B381E090E002C0CC
:10056000880F991F6A95E2F7822B84BB089521B307
:1005700081E090E002C0880F991F6A95E2F7822B14
:1005800081BB08954130A1F5813089F028F0823097
:10059000C9F0833011F108952BB381E090E002C0DF
:1005A000880F991F6A95E2F7822B8BBB089528B3B9
:1005B00081E090E002C0880F991F6A95E2F7822BD4
:1005C00088BB089525B381E090E002C0880F991F91
:1005D0006A95E2F7822B85BB089522B381E090E013
:1005E00002C0880F991F6A95E2F7822B82BB08959B
:1005F000813091F028F08230D9F0833029F10895CC
:100600002BB381E090E002C0880F991F6A95E2F752
:10061000809582238BBB089528B381E090E002C0CF
:10062000880F991F6A95E2F78095822388BB089509
:1006300025B381E090E002C0880F991F6A95E2F728
:100640008095822385BB089522B381E090E002C0AB
:10065000880F991F6A95E2F78095822382BB0895DF
:1006600083B7806483BF83B7886083BF089583B7EF
:100670008E7F83BF83B78D7F83BF83B78B7F83BF1D
:1006800083B7816083BF83B7826083BF83B78B7F6B
:1006900083BF0895CF93C82F41E063E081E00E94BB
:1006A000540283B78F7E83BF83B7806283BF9C2F42
:1006B00080E064E670E00E94030461507109CB01A0
:1006C000992324F488279927861B970B8CBFCF91F9
:1006D000089585B58F7B85BD85B5886085BD0895F6
:1006E000882319F0813031F0089589B7806489BF7B
:1006F0007894089589B7806889BF7894089585B5FE
:100700008E7F85BD85B58D7F85BD85B58B7F85BD8C
:1007100085B58E7F85BD85B58D7F85BD85B58460AA
:1007200085BD08958F929F92AF92BF92CF92DF9234
:10073000EF92FF929B01AC01A0E4BFE10E9439045B
:100740004B015C01689415F8B694A794979487942C
:100750001694D1F7C12CD12C7601CA940FC0C501D3
:10076000B401A70196010E941704672B682B692B1F
:1007700059F081E0C81AD108E108F10882E0C816F2
:10078000D104E104F10458F7C3BCC501B401A701C9
:1007900096010E9417042093690030936A004093E9
:1007A0006B0050936C00FF90EF90DF90CF90BF9064
:1007B000AF909F908F9008958BB182608BB98AB172
:1007C00080618AB98AB188608AB980B5806880BD45
:1007D00080B5826080BD80B5846080BD10BC86E637
:1007E00089B908959BB1929596959770D9F3E7ECE6
:1007F000F0E03197F1F700C000008CB908955F9BDD
:10080000FECF8CB1089597FB072E16F4009407D005
:1008100077FD09D00E94440407FC05D03EF4909572
:1008200081959F4F0895709561957F4F0895A1E23E
:100830001A2EAA1BBB1BFD010DC0AA1FBB1FEE1F5A
:10084000FF1FA217B307E407F50720F0A21BB30BA5
:10085000E40BF50B661F771F881F991F1A9469F721
:1008600060957095809590959B01AC01BD01CF017D
:1008700008950E945804A59F900DB49F900DA49FC9
:10088000800D911D11240895AA1BBB1B51E107C0C7
:10089000AA1FBB1FA617B70710F0A61BB70B881F10
:1008A000991F5A95A9F780959095BC01CD0108959F
:1008B000A29FB001B39FC001A39F700D811D1124A1
:1008C000911DB29F700D811D1124911D0895F89402
:0208D000FFCF58
:00000001FF
