S00C00004D4355312E7372656302
S11300000C942A000C9447000C9447000C9447006D
S11300100C9447000C9447000C9447000C94470040
S11300200C9447000C9447000C9447000C94470030
S11300300C9447000C9447000C9447000C94470020
S11300400C9489000C9447000C9447000C944700CE
S11300500C94470011241FBECFE5D8E0DEBFCDBF0E
S113006011E0A0E6B0E0E4E1FCE002C005900D92EE
S1130070AA32B107D9F721E0AAE2B1E001C01D928A
S1130080AC32B207E1F70E9449000C9408060C94C4
S1130090000060E875E280E090E00E9475040E9430
S11300A072010E94E70086E00E94CA020E94ED02EB
S11300B00E943D040E9444040E94F20290932B018A
S11300C080932A010E94950260E080E00E94D3019F
S11300D080E990E00E94BC0160E081E00E94D301CD
S11300E081EA90E00E94BC010E94F000C82F8B328C
S11300F011F08D3249F78C2F0E94A204CB3219F0F3
S1130100CD3221F0E1CF0E940F02DECF0E94C40263
S1130110DBCF1F920F920FB60F9211242F933F93B0
S11301204F935F936F937F938F939F93AF93BF93FB
S1130130EF93FF930E94F20290932B0180932A0184
S113014080912A0190912B01449720F480E00E9431
S1130150570429C080912A0190912B01449750F0B3
S113016080912A0190912B01499720F48AE00E9402
S1130170570419C080912A0190912B01499750F09E
S113018080912A0190912B01839720F482E30E94AD
S1130190570409C080912A0190912B01839718F08C
S11301A084E60E94570486B1806486B9FF91EF917A
S11301B0BF91AF919F918F917F916F915F914F917B
S11301C03F912F910F900FBE0F901F90189560EFE5
S11301D081E00E9410036FEF81E00E949003089574
S11301E00F931F93CF93DF93CDB7DEB760970FB60E
S11301F0F894DEBF0FBECDBF04E040C040E0602FE6
S113020081E00E94200310E031C0612F81E00E9450
S1130210100481112AC0612F81E00E941004811111
S113022024C0612F81E00E9410048823D1F380E16F
S1130230E0E8F0E0DE01119601900D928A95E1F775
S1130240812F90E0202F30E024503109880F991F2E
S1130250880F991F41E050E04C0F5D1F840F951FDC
S1130260FC01E20FF31F80810DC01F5F143068F2A0
S113027041E0602F81E00E9420030F5F083008F402
S1130280BDCF80E060960FB6F894DEBF0FBECDBF41
S1130290DF91CF911F910F91089541E064E083E0D5
S11302A00E9420038FEC97E00197F1F700C0000053
S11302B040E064E083E00E9420030895CF93C82FB8
S11302C040E063E083E00E94200340E062E083E0DA
S11302D00E9420036C2F82E00E9490030E944D0133
S11302E0CF9108956FEF82E00E94100341E062E035
S11302F083E00E94A00341E063E083E00E94A00346
S113030041E064E083E00E94A0032FEF89EF90E0D6
S1130310215080409040E1F700C0000088E30E9433
S11303205E012AE62A95F1F700C08CE00E945E0186
S11303308AE68A95F1F700C081E00E945E018FE9A8
S11303409FE00197F1F700C000000E944D0108955D
S1130350CF93C82F40E063E083E00E94200341E094
S113036062E083E00E9420036C2F82E00E949003ED
S11303700E944D01CF9108950F931F93CF938C0149
S1130380C0E003C00E94A801CF5FF801EC0FF11D8B
S113039080818111F7CFCF911F910F91089581E052
S11303A00E945E010895823050F4603140F490E47C
S11303B0899F600D1124862F80680E945E01089534
S11303C0CF930E94CF0162E080E00E94D30182EBD0
S11303D090E00E94BC0160E081E00E94D30180ECC7
S11303E090E00E94BC010E94A904C82F833419F430
S11303F00E94CF0112C0813338F069E081E00E948D
S1130400D3018C2F0E94A8016BE081E00E94D301EC
S11304108AEC90E00E94BC01E6CFCF91089581E080
S11304200E9438020E94A904803140F480E80E94AE
S11304305E018FEC90E00E94BC01F4CF90EF980F26
S1130440933040F480E80E945E0181EE90E00E94C7
S1130450BC01E8CF83518F3040F480E80E945E01F4
S113046082EF90E00E94BC01DDCF0E94CF0108958D
S11304700F931F93CF93DF93082FD3E047C00E94BD
S1130480CF0120E1029FC0011124805A9F4F0E9496
S1130490BC0160E081E00E94D30110E068E081E0EB
S11304A00E94D30183E091E00E94BC0180E38D0FA0
S11304B00E94A8010E94F000C82F882379F3833496
S11304C071F0153060F4612F81E00E94D3018AE25B
S11304D00E94A8018C2F90E00E94A2041F5FC334E5
S11304E0E9F61530D9F68DE090E00E94A2040E944E
S11304F0A904823441F40E94CF018BE091E00E9470
S1130500BC01D15003C0813449F607C0D111B7CF23
S11305100E94CF010E94E001B0CF0E94CF0181E48C
S1130520DF91CF911F910F910895CF93DF930E9494
S1130530CF018AE191E00E94BC0160E081E00E9469
S1130540D301D0E00E94F000C82F8823D9F383346C
S113055051F0D53040F48AE20E94A8018C2F90E03B
S11305600E94A204DF5FC33469F7D53059F78DE0E8
S113057090E00E94A20480E00E94380281110E944F
S1130580CF01DF91CF91089581E00E9438020E944B
S11305909502089517B897B1906497B916B896B1B3
S11305A0892B86B986B1806886B9089597B1907E03
S11305B097B997B1892B87B986B1806486B986B11A
S11305C082958F70E1F386B1806186B924B185B1DB
S11305D090E0982F8827822B089586B1886086B989
S11305E07894089580E00E94D602BC01660F771FBC
S11305F0660F771F680F791F80E090E00E94DC048B
S113060020E030E048EC52E40E94420520E030E073
S113061040E85AE30E9442050E94AD04CB010895CC
S1130620813041F028F0823039F0833039F0089578
S11306306ABB089567BB089564BB089561BB0895C0
S1130640411138C0813091F028F08230D9F08330E4
S113065029F108952BB381E090E002C0880F991F1F
S11306606A95E2F7809582238BBB089528B381E0D5
S113067090E002C0880F991F6A95E2F78095822363
S113068088BB089525B381E090E002C0880F991FCC
S11306906A95E2F78095822385BB089522B381E0B1
S11306A090E002C0880F991F6A95E2F78095822333
S11306B082BB0895413099F5813089F028F0823069
S11306C0C9F0833011F108952BB381E090E002C0AA
S11306D0880F991F6A95E2F7822B8BBB089528B384
S11306E081E090E002C0880F991F6A95E2F7822B9F
S11306F088BB089525B381E090E002C0880F991F5C
S11307006A95E2F7822B85BB089522B381E090E0DD
S113071002C0880F991F6A95E2F7822B82BB089565
S1130720813041F028F0823039F0833039F0089577
S11307306BBB089568BB089565BB089562BB0895BB
S1130740411138C0813091F028F08230D9F08330E3
S113075029F108952AB381E090E002C0880F991F1F
S11307606A95E2F7809582238ABB089527B381E0D6
S113077090E002C0880F991F6A95E2F78095822362
S113078087BB089524B381E090E002C0880F991FCD
S11307906A95E2F78095822384BB089521B381E0B2
S11307A090E002C0880F991F6A95E2F78095822332
S11307B081BB0895413099F5813089F028F0823069
S11307C0C9F0833011F108952AB381E090E002C0AA
S11307D0880F991F6A95E2F7822B8ABB089527B385
S11307E081E090E002C0880F991F6A95E2F7822B9E
S11307F087BB089524B381E090E002C0880F991F5D
S11308006A95E2F7822B84BB089521B381E090E0DE
S113081002C0880F991F6A95E2F7822B81BB089565
S1130820813079F028F08230A9F08330E1F024C0DF
S113083089B390E002C0959587956A95E2F7817037
S1130840089586B390E002C0959587956A95E2F77E
S11308508170089583B390E002C0959587956A9559
S1130860E2F78170089580B390E002C09595879572
S11308706A95E2F781700895089585B5806485BD11
S113088085B5886085BD089585B58E7F85BD85B5A0
S11308908D7F85BD85B58B7F85BD85B5816085BD23
S11308A085B5826085BD85B58B7F85BD0895CF9361
S11308B0C82F41E067E083E00E94A00385B58F7EE6
S11308C085BD85B5806285BD8FEFC89F90011124D9
S11308D03695279536952795ABE7B4E10E94F9053F
S11308E09695879583BDCF9108952BB122602BB93E
S11308F02AB120612AB92AB128602AB920B5206812
S113090020BD20B5226020BD20B5246020BDDC01BF
S1130910CB01880F991FAA1FBB1F880F991FAA1FFD
S1130920BB1F9C01AD01220F331F441F551F60E004
S113093072E18AE790E00E94D7052150310930BD69
S113094029B908959BB1929596959770D9F38CB96E
S113095008955F9BFECF8CB108950E94210588F015
S11309609F5798F0B92F9927B751B0F0E1F0660F6F
S1130970771F881F991F1AF0BA95C9F714C0B130B0
S113098091F00E943B05B1E008950C943B05672F5C
S1130990782F8827B85F39F0B93FCCF386957795DF
S11309A06795B395D9F73EF49095809570956195C8
S11309B07F4F8F4F9F4F0895E89409C097FB3EF4F3
S11309C090958095709561957F4F8F4F9F4F992398
S11309D0A9F0F92F96E9BB279395F6958795779516
S11309E06795B795F111F8CFFAF4BB0F11F460FFD6
S11309F01BC06F5F7F4F8F4F9F4F16C0882311F02E
S1130A0096E911C0772321F09EE8872F762F05C041
S1130A10662371F096E8862F70E060E02AF09A95DC
S1130A20660F771F881FDAF7880F9695879597F9D1
S1130A30089557FD9058440F551F59F05F3F71F0CA
S1130A404795880F97FB991F61F09F3F79F0879531
S1130A500895121613061406551FF2CF4695F1DFBA
S1130A6008C0161617061806991FF1CF869571054A
S1130A70610508940895E894BB2766277727CB017E
S1130A8097F908950E9455050C94C6050E94B8056F
S1130A9038F00E94BF0520F0952311F00C94AF05A7
S1130AA00C94B50511240C943C050E94190570F3AF
S1130AB0959FC1F3950F50E0551F629FF001729FFF
S1130AC0BB27F00DB11D639FAA27F00DB11DAA1F0E
S1130AD0649F6627B00DA11D661F829F2227B00D5B
S1130AE0A11D621F739FB00DA11D621F839FA00DE6
S1130AF0611D221F749F3327A00D611D231F849F36
S1130B00600D211D822F762F6A2F11249F5750408C
S1130B109AF0F1F088234AF0EE0FFF1FBB1F661F07
S1130B20771F881F91505040A9F79E3F510580F0D0
S1130B300C94AF050C943C055F3FE4F3983ED4F36A
S1130B40869577956795B795F795E7959F5FC1F774
S1130B50FE2B880F911D9695879597F9089597F91F
S1130B609F6780E870E060E008959FEF80EC08954F
S1130B7000240A9416161706180609060895002478
S1130B800A9412161306140605060895092E0394F2
S1130B90000C11F4882352F0BB0F40F4BF2B11F466
S1130BA060FF04C06F5F7F4F8F4F9F4F0895A1E296
S1130BB01A2EAA1BBB1BFD010DC0AA1FBB1FEE1FD3
S1130BC0FF1FA217B307E407F50720F0A21BB30B1E
S1130BD0E40BF50B661F771F881F991F1A9469F79A
S1130BE060957095809590959B01AC01BD01CF01F6
S1130BF00895A29FB001B39FC001A39F700D811DF2
S1130C001124911DB29F700D811D1124911D089511
S1070C10F894FFCF82
S1130C1452652D656E7465722075722070617373EC
S1130C24456E7465722075722070617373000000E0
S1130C343738392F343536783132332D43303D2B20
S1130C4420272B27204F70656E20446F6F7220205D
S1130C540020272D272050617373204368616E6739
S1130C6465002020225741524E494E47222020003D
S1130C745761697420666F722000207365630022D3
S1130C84446F6F7220556E6C6F636B696E672220BC
S1130C9400202020202022486F6C64222020202061
S1130CA420002022446F6F72204C6F636B696E675F
S1130CB4222000547269616C733D0057726F6E6731
S1130CC42050617373776F726400506C7A20656E80
S10D0CD474657220706173733A00B6
S9030000FC
